:100000000C947A000C94850B0C945E0B0C94A2005B
:100010000C94A2000C94A2000C94A2000C94A200D8
:100020000C94A2000C94A2000C94A2000C94A200C8
:100030000C94A2000C94A2000C94A2000C94A200B8
:100040000C94140B0C94A2000C94D20B0C94AC0BDB
:100050000C94A2000C94A2000C94A2000C94A20098
:100060000C94A2000C94A200CDCCCC3D0AD7233C2A
:1000700017B7D13877CC2B329595E6241FB14F0AAC
:10008000000020410000C84200401C4620BCBE4C7D
:10009000CA1B0E5AAEC59D74000000002400270044
:1000A0002A0000000000250028002B0000000000AE
:1000B00023002600290004040404040404040202AA
:1000C00002020202030303030303010204081020D7
:1000D00040800102040810200102040810200000E2
:1000E00000080002010000030407000000000000F7
:1000F0000000040C11241FBECFEFD8E0DEBFCDBF3F
:1001000011E0A0E0B1E0E2EBF6E202C005900D9252
:10011000A83AB107D9F722E0A8EAB1E001C01D92E0
:10012000A737B207E1F710E0CAE7D0E004C0219793
:10013000FE010E94F30EC937D107C9F70E944E0C89
:100140000C9457130C940000833081F028F4813014
:1001500099F08230A9F008958730A9F08830C9F06D
:100160008430B1F4809180008F7D03C08091800045
:100170008F7780938000089584B58F7784BD08952C
:1001800084B58F7DFBCF8091B0008F778093B000D6
:1001900008958091B0008F7DF9CFCF93DF93282F02
:1001A00030E0F901E252FF4F8491F901E653FF4F2D
:1001B000D491F901EA54FF4FC491CC23A1F08111ED
:1001C0000E94A400EC2FF0E0EE0FFF1FE455FF4F5C
:1001D000A591B491EC91ED2381E090E009F480E0E9
:1001E000DF91CF91089580E090E0FACF1F93CF93F5
:1001F000DF93282F30E0F901E252FF4F8491F9019B
:10020000E653FF4FD491F901EA54FF4FC491CC2338
:10021000A9F0162F81110E94A400EC2FF0E0EE0F40
:10022000FF1FEE55FF4FA591B4918FB7F894EC9155
:10023000111108C0D095DE23DC938FBFDF91CF91E1
:100240001F910895DE2BF8CFCF93DF9390E0FC0150
:10025000E653FF4F24918A549F4FFC0184918823D9
:10026000D1F090E0880F991FFC01E856FF4FA5914F
:10027000B491FC01EE55FF4FC591D49161110EC0B0
:100280009FB7F8948C91E22FE0958E238C93288170
:10029000E223E8839FBFDF91CF9108958FB7F89451
:1002A000EC91E22BEC938FBFF6CF8E50806480935D
:1002B0007C0080917A00806480937A0080917A003B
:1002C00086FDFCCF809178009091790008953FB72A
:1002D000F8948091BA019091BB01A091BC01B091BA
:1002E000BD0126B5A89B05C02F3F19F00196A11DA1
:1002F000B11D3FBFBA2FA92F982F8827BC01CD0170
:10030000620F711D811D911D42E0660F771F881FCE
:10031000991F4A95D1F7089583E00E94CD00682F78
:100320008DE00C94F6000895AF92BF92CF92DF92C9
:10033000EF92FF920F931F93CF93DF936C017B019A
:100340008B01040F151FEB015E01AE18BF08C0172B
:10035000D10759F06991D601ED91FC910190F0819E
:10036000E02DC6010995892B79F7C501DF91CF9161
:100370001F910F91FF90EF90DF90CF90BF90AF90C3
:100380000895FC01538D448D252F30E0842F90E09B
:10039000821B930B541710F0CF9608950197089580
:1003A000FC01918D828D981761F0A28DAE0FBF2F49
:1003B000B11D5D968C91928D9F5F9F73928F90E09F
:1003C00008958FEF9FEF0895FC01918D828D98170E
:1003D00031F0828DE80FF11D858D90E008958FEF4B
:1003E0009FEF0895FC01918D228D892F90E0805C14
:1003F0009F4F821B91098F73992708958EEB91E08F
:100400000E94F20121E0892B09F420E0822F089557
:1004100080E090E0892B29F00E94FE0181110C946C
:1004200000000895FC01A48DA80FB92FB11DA35A97
:10043000BF4F2C91848D90E001968F739927848F04
:10044000A689B7892C93A089B1898C918370806427
:100450008C93938D848D981306C00288F389E02DC8
:1004600080818F7D80830895EF92FF920F931F9379
:10047000CF93DF93EC0181E0888F9B8D8C8D981357
:100480001AC0E889F989808185FF15C09FB7F89463
:10049000EE89FF896083E889F989808183708064AF
:1004A00080839FBF81E090E0DF91CF911F910F91FA
:1004B000FF90EF900895F62E0B8D10E00F5F1F4F09
:1004C0000F731127E02E8C8D8E110CC00FB607FC18
:1004D000FACFE889F989808185FFF5CFCE010E94A6
:1004E0001202F1CFEB8DEC0FFD2FF11DE35AFF4F00
:1004F000F0829FB7F8940B8FEA89FB898081806234
:10050000CFCFCF93DF93EC01888D8823B9F0AA89F0
:10051000BB89E889F9898C9185FD03C0808186FDBE
:100520000DC00FB607FCF7CF8C9185FFF2CF80810D
:1005300085FFEDCFCE010E941202E9CFDF91CF916E
:100540000895089590E080E008956F3FB1F0E62FA0
:10055000E295EF7044E0E49F90011124DC01ED91FD
:10056000FC91E20FF31F6F70B8E06B9FC001112484
:1005700062817381860F971F089590E080E008954F
:10058000CF93DF93EC0188819981DC01ED91FC919F
:100590000190F081E02D09952A813B81820F931F04
:1005A0009B838A83DF91CF910895CF93DF93EC01F2
:1005B00088819981DC01ED91FC910280F381E02D2D
:1005C00009952A813B81820F931F9B838A83DF9148
:1005D000CF9108958F929F92AF92BF92CF92DF9268
:1005E000EF92FF920F931F93CF93DF93CDB7DEB7B8
:1005F00066970FB6F894DEBF0FBECDBF6C018E01BB
:10060000095E1F4F78018AE0882E912CA12CB12C15
:10061000CB01BA01A50194010E94D10E942F852F20
:10062000605DF80162938F01A901692F782F411550
:1006300051056105710561F7A7014E1B5F0BBF01F5
:10064000C6010E94D50266960FB6F894DEBF0FBEB3
:10065000CDBFDF91CF911F910F91FF90EF90DF9071
:10066000CF90BF90AF909F908F900895FC0192899A
:10067000915084E0989F90011124A089B189A20F24
:10068000B31F1296ED91FC9113973097E9F01196F4
:100690002C9111978C912817B8F481E0820F119654
:1006A0008C9388E0289FA0011124E40FF51F309758
:1006B00059F014828FEF858317821682BF01892F2C
:1006C0008295807F820F089560E070E08FEF08953B
:1006D000CF93DF93EC01A881B981F0E0E0E01097BF
:1006E00041F1CD01049668177907F1F412969C91B7
:1006F0001297915012969C93129791111AC08D9156
:100700009C911197309769F091838083EA01E88189
:10071000F9810280F381E02DBD01CA01DF91CF9103
:10072000099499838883F2CFFD010D90BC91A02D8F
:10073000D6CFDF91CF9108958F929F92AF92BF92C3
:10074000CF92DF92EF92FF920F931F93CF93DF939D
:100750008C01EB01FC01848180FF0AC04881598132
:10076000608171816C5F7F4FCE0103960E946803A8
:10077000F8018481807681F10115110569F1D0803D
:100780005E01F5E1AF0EB11C4E0183E0880E911CB5
:10079000EFEFDE16F1F06D2DC5010E94A5027C0180
:1007A000FC01C580848187FF07C04881598166812B
:1007B0007781C4010E946803BE01C7010E949C03A7
:1007C000F701848180788483898D8583D98EDC2CA0
:1007D000DFCFF801D082D182DF91CF911F910F91AD
:1007E000FF90EF90DF90CF90BF90AF909F908F9051
:1007F0000895FC0101900020E9F73197AF01481BF3
:10080000590BBC018BE592E00C9494018F929F925E
:10081000AF92BF920F931F93CF93DF93CDB7DEB705
:10082000A1970FB6F894DEBF0FBECDBF19A242301C
:1008300008F44AE08E010F5D1F4F842E912CB12CDD
:10084000A12CA50194010E94D10EE62FB901CA0185
:10085000EA30F4F4E05DD801EE938D01232B242BD4
:10086000252B79F790E080E0109719F0CD010E94D8
:10087000F903A1960FB6F894DEBF0FBECDBFDF918E
:10088000CF911F910F91BF90AF909F908F9008953F
:10089000E95CE1CFFB0101900020E9F73197AF015E
:1008A000461B570B0C94D5021F93CF93DF93E4E3C1
:1008B000F1E01281112379F0329621816213F9CF90
:1008C000EC016CE50E94C002612FCE01DF91CF9157
:1008D0001F910C94C0026111F9CF65E471E0DF91C2
:1008E000CF911F910C944A04CF92DF92EF92FF9226
:1008F0000F931F93CF93DF938C016B017A0162E218
:100900000E94C002E601EC0CFD1CCE15DF0529F0AB
:100910006991C8010E945404F8CF62E2C801DF91D6
:10092000CF911F910F91FF90EF90DF90CF900C949B
:10093000C0022F923F924F925F926F927F928F925E
:100940009F92AF92BF92CF92DF92EF92FF920F935E
:100950001F93CF93DF93CDB7DEB76C970FB6F894A4
:10096000DEBF0FBECDBF8C011B01DC0114968C9144
:1009700014978F77883009F4B2C2E8F4843009F410
:1009800069C248F4833009F49FC26CE471E0C1018C
:100990000E944A041CC2853009F470C28630A9F74F
:1009A0008C9161E571E0811102C066E571E0C101E1
:1009B0000E944A046DC28C30F1F1C8F48A3029F7E4
:1009C000CD90DD90ED90FC90B701A601F7FE0BC035
:1009D0006DE2C1010E94C00244275527BA014C199B
:1009E0005D096E097F09C1010E94EA0251C280328D
:1009F00009F4F7C1803449F66BE5C1010E94C002D9
:100A0000F80110811F3F09F4E7C1D10114968D91BF
:100A10009C91612F45960E94A5028C01B1010E9414
:100A20009904F80115811F3F09F4D6C16CE2C10198
:100A30000E94C002E7CFF801C080D180E280F3803D
:100A4000A7019601C701B6010E94660F81119DCFD3
:100A500020E030E0A901C701B6010E94660F88239B
:100A600079F0A7019601C701B6010E94FA0E9B0119
:100A7000AC01C701B6010E94660F882309F485CF37
:100A800020E030E0A901C701B6010E94660F87FF90
:100A900008C06DE2C1010E94C002F7FAF094F7F8B5
:100AA000F09420E836E948E15BE4C701B6010E9412
:100AB000BE1087FD88C074E1A72EB12C00E210E0C3
:100AC000188E1F8AF501E058FF4F25913591459109
:100AD0005491C701B6010E94BE1087FD13C0F501F5
:100AE000E859FF4F2591359145915491C701B601C1
:100AF0000E94C3106B017C012F89388D200F311F9C
:100B0000388F2F8B1595079534E0A31AB1088CEF19
:100B1000A8168FEFB806B1F655245A9420E030E0BD
:100B2000A901C701B6010E94BE1018160CF052C0F0
:100B30002CEA35EC47E257E3C701B6010E94660F85
:100B400018160CF447C0A52DB4E0AB02C001112467
:100B5000B12CA12CFC01E859FF4F3F019C0120580A
:100B60003F4F49013FEF531609F434C0F301EA0D3A
:100B7000FB1D659175918591949120E030E040E2F4
:100B800051E40E94C310A70196010E94BE101816DE
:100B90009CF4F401EA0DFB1D25913591459154918A
:100BA000C701B6010E94C3106B017C018F89988D2B
:100BB000801B910B988F8F8B159507955A9494E015
:100BC000A91AB108CFCF00E210E055E0552E188EDB
:100BD0001F8AA4CFC701B6010E94DD0F4B015C0143
:100BE0002B013C0106E080E492E4AFE0B0E0898FA5
:100BF0009A8FAB8FBC8F102F01509AE04916510489
:100C000061047104C8F0698D7A8D8B8D9C8D2AE00A
:100C100030E040E050E00E94D10E298F3A8F4B8F98
:100C20005C8FC301B2012AE030E040E050E00E9456
:100C3000D10E29013A01DFCFC501B4010E940C1089
:100C40009B01AC01C701B6010E94F90E6B017C014A
:100C5000698D7A8D8B8D9C8D0E940C109B01AC014F
:100C6000C701B6010E94C3102B013C010E94DD0F99
:100C70006B017C010E940C109B01AC01C301B2010D
:100C80000E94F90E9B01AC010E94FA0E0E94DD0F3A
:100C9000C60ED71EE81EF91E898D9A8DAB8DBC8DB0
:100CA000C816D906EA06FB06D8F09FEF891A990AFA
:100CB000A90AB90AAF89B88DAB2B39F1BAE08B1606
:100CC0009104A104B10408F1EF89F88D3196F88FF1
:100CD000EF8BC12CD12C7601812C912C5401839463
:100CE0002AE0422E512C612C712CC701B601A301C0
:100CF00092010E94D10E672B682B692B51F41116BB
:100D000044F469017A011150F0CFC12CD12C760145
:100D1000E7CFB501A401C1010E94EA02112371F1DC
:100D20004E01F1E18F0E911C012F54019AE0492EE2
:100D3000512C612C712C015068F0C701B601A30140
:100D400092010E94D10E605DD4016E934D01690144
:100D50007A01F1CF812F90E0BC0160957095F5018B
:100D6000E81BF90B31978EE2808344275527461BF9
:100D7000570B6A0D7B1DC1010E94D502EF89F88DCA
:100D8000EF2B29F165E6C1010E94C0020F89188D81
:100D900017FF07C06DE2C1010E94C00211950195C5
:100DA0001109FE0177969F018AE0E82EF12CC80117
:100DB000B7010E94BD0E805D82938B01672BB9F74E
:100DC000A9014E1B5F0BBF01C1010E94D502D101D9
:100DD00012968D919C915FC06DE5C1010E94C00289
:100DE000F6CF6BE7C1010E94C002F80110811F3FDE
:100DF00079F1D10114968D919C91612F45960E94B5
:100E0000A5028C01FC01C680D78062E2C1010E946C
:100E1000C0027601D7016D917D01662321F0C101E9
:100E20000E945404F7CF62E2C1010E94C0026AE34B
:100E3000C1010E94C002B101C8010E949904F801D9
:100E400015811F3F29F06CE2C1010E94C002CFCF83
:100E50006DE7C3CFF8016081718150E040E061151A
:100E6000710541F0FB0101900020E9F73197AF01D6
:100E7000461B570BC1010E947404A9CFED91FC9150
:100E8000438150E0BF016C5F7F4FC1010E94740439
:100E9000F101828193816C960FB6F894DEBF0FBE8C
:100EA000CDBFDF91CF911F910F91FF90EF90DF9019
:100EB000CF90BF90AF909F908F907F906F905F90FA
:100EC0004F903F902F900895ED91FC91438150E019
:100ED000BF016C5F7F4FC1010E94D502D9CF4D91F8
:100EE0005D916D917C917FCDCF93DF93EC0160E0BC
:100EF0008E810E94F60061E08E810E94F60060E023
:100F00008E810E94F6008BE891E00197F1F7DF9166
:100F1000CF910895CF92DF92EF92FF920F931F939C
:100F2000CF93DF936C017C0187E0E80EF11CD0E0E9
:100F3000C0E0062F10E0B8010C2E02C07595679531
:100F40000A94E2F76170F70181917F010E94F60037
:100F50002196C430D10579F7C601DF91CF911F9159
:100F60000F91FF90EF90DF90CF900C947407CF9289
:100F7000DF92EF92FF920F931F93CF93DF93EC01D9
:100F8000F62E642F8C810E94F6008D818F3F19F020
:100F900060E00E94F6000F2D10E08F8584FF25C0D1
:100FA0006E0187E0C80ED11CF12CE12CB8010E2C8B
:100FB00002C0759567950A94E2F76170F601819118
:100FC0006F010E94F600FFEFEF1AFF0A88E0E816B3
:100FD000F10461F7CE01DF91CF911F910F91FF9046
:100FE000EF90DF90CF900C947407B80184E0759572
:100FF00067958A95E1F7CE010E948A076F2DCE0191
:10100000DF91CF911F910F91FF90EF90DF90CF90E4
:101010000C948A0740E0682F8BE592E00C94B707A8
:10102000CF93DF93813029F090916A02986090937A
:101030006A0280936E0210926F0280E480937002C5
:1010400080E18093710280E58093720261E080917B
:101050005F020E942401809160028F3F19F061E0DD
:101060000E94240161E0809161020E942401CBE58D
:10107000D2E09E012B55324080916A0284FD0BC064
:1010800084E090E021962817390744F461E08E81CE
:101090000E942401EECF88E090E0F4CF8BE39DE046
:1010A0000197F1F760E080915F020E94F60060E036
:1010B000809161020E94F600809160028F3F19F0DA
:1010C00060E00E94F60080916A0284FD39C063E00E
:1010D0008BE592E00E948A07CBE4D6E4CE0101972B
:1010E000F1F763E08BE592E00E948A072197F1F720
:1010F00063E08BE592E00E948A0783E592E0019726
:10110000F1F762E08BE592E00E948A0780916A0223
:1011100080620E940A0884E080936B028CE00E9447
:101120000A0881E00E940A088BE39FE10197F1F72A
:1011300082E080936C0286E0DF91CF910C940A08E4
:1011400080620E940A088BE496E40197F1F780918F
:101150006A0280620E940A0883E592E00197F1F733
:1011600080916A0280620E940A08D0CF90916E023C
:10117000691710F06FEF690FE62FF0E0E55AFD4FA9
:101180009489890F80680C940A0841E00E94B7078F
:1011900081E090E008954F925F926F927F928F92DC
:1011A0009F92AF92BF92CF92DF92EF92FF920F93F6
:1011B0001F93CF936B017C01742EAC019B010E94A5
:1011C0003011882399F08CE591E0CF911F910F9118
:1011D000FF90EF90DF90CF90BF90AF909F908F9057
:1011E0007F906F905F904F900C94F90346015701E8
:1011F000E894B7F82FEF3FEF4FE75FE7C501B40181
:101200000E94301181110DC02FEF3FEF4FE75FE7D4
:10121000C501B4010E94660F18161CF480E691E027
:10122000D4CF2FEF3FEF4FE75FE4C701B6010E9435
:10123000BE1018161CF484E691E0C7CF2FEF3FEFE5
:101240004FE75FECC701B6010E94660F87FDF3CF41
:1012500020E030E0A901C701B6010E94660F10E04E
:1012600000E087FF0CC041E06DE28BE592E00E9458
:10127000B707F7FAF094F7F8F09401E010E0C0E057
:1012800060E070E080E09FE37C1641F020E030E019
:1012900040E251E40E946B0FCF5FF6CFA7019601A9
:1012A0000E94FA0E4B015C010E94DD0F2B013C01F4
:1012B0004AE00E940604080F191FCC23C9F1C3019C
:1012C000B2010E940C109B01AC01C501B4010E9447
:1012D000F90E4B015C0141E06EE28BE592E00E9469
:1012E000B7070F5F1F4FC15018F120E030E040E218
:1012F00051E4C501B4010E94C3102B013C010E94BE
:10130000DD0F4B01B12CA12C4AE0C501B4010E94B4
:101310000604080F191FC501B4010E940C109B019F
:10132000AC01C301B2010E94F90E4B015C01DBCF9D
:10133000C801CF911F910F91FF90EF90DF90CF9058
:10134000BF90AF909F908F907F906F905F904F90E5
:1013500008955F926F927F928F929F92AF92BF9209
:10136000CF92DF92EF92FF920F931F93CF93DF9371
:10137000FC016115710599F4D0E0C0E0CE01DF9168
:10138000CF911F910F91FF90EF90DF90CF90BF9082
:10139000AF909F908F907F906F905F900895848121
:1013A000982F9F7709F03FC08078806284833097C0
:1013B00019F38FEF808381838A017B013F015A01FA
:1013C00085E1A80EB11C6081C5010E94A502EC0157
:1013D000009709F4B5C06D81892B09F4B1C0AE81C5
:1013E000BF81F70101900020E9F73197CF018E19F5
:1013F0009F09F0E0E0E0109739F0FD010190002036
:10140000E9F73197EA1BFB0B8E179F07E9F6F70107
:101410008E0D9F1D8E179F0709F4B0CF31912D912E
:101420003217C1F3D1CF85FFA7CF309729F6A4CFCC
:101430004801B5E08B0E911CF801C080D1808789EE
:10144000882349F0C4010E943603C62FD72F209766
:1014500011F0D82E8CC0D8015796CC91579758963A
:101460009C915897C91326C0C03109F461C0CC0FB4
:1014700055966D917C91D601ED91FC91B4E0CB9F96
:10148000A00111248616970609F04AC00190F08148
:10149000E02DBA01C6010995009709F449C020E181
:1014A000F401DC0101900D922A95E1F7F801968B89
:1014B000858BC08FD80155962D913C9156975796A4
:1014C000CC91579781E08C0F57968C93B4E0CB9FCB
:1014D000E0011124C20FD31F90E1592E803111F485
:1014E0008FE0582EE8E05E9EB0011124D601ED9108
:1014F000FC910190F081E02DC60109959B838A83C0
:10150000892B09F4512C58821982CD2B89F0C40102
:101510000E943603C62FD72FD82E209741F508C03A
:101520000480F581E02DC6010995009709F0BECF32
:1015300081E0F801828320CFF301D082D18224C0E0
:10154000D8015996DC90BFEFDB1609F471CF6D2DF1
:10155000C5010E94A502EC018D81D80159968C939A
:10156000209731F31C828FEF8D831F821E82D3015F
:1015700011966C916F3F01F3C5010E94A502FC0119
:10158000D582D3011196DC928C818F778C83FF8278
:10159000EE82F4CE8F929F92AF92BF92EF92FF9223
:1015A0000F931F93CF93DF938C015B01DC01ED90D0
:1015B000FC901197C7014A96C9F012966D917C91E3
:1015C000A7010E94A909EC01009781F0F501808034
:1015D0009180A280B380B7010E949C038C818078A7
:1015E0008C608C8388829982AA82BB82D801ED911B
:1015F000FC9180E0309719F0828191E08927DF919A
:10160000CF911F910F91FF90EF90BF90AF909F905F
:101610008F900895CB01BA010C945A12CB010C940F
:10162000D111CB010C9435111F920F920FB60F926E
:1016300011242F933F938F939F93AF93BF938091E8
:10164000B6019091B701A091B801B091B901309164
:10165000B50123E0230F2D3758F50196A11DB11DCB
:101660002093B5018093B6019093B701A093B80180
:10167000B093B9018091BA019091BB01A091BC01D6
:10168000B091BD010196A11DB11D8093BA01909347
:10169000BB01A093BC01B093BD01BF91AF919F91DD
:1016A0008F913F912F910F900FBE0F901F90189523
:1016B00026E8230F0296A11DB11DD2CF1F920F92D3
:1016C0000FB60F9211242F933F934F935F936F9315
:1016D0007F938F939F93AF93BF93EF93FF93E0918B
:1016E0000201F09103010995FF91EF91BF91AF9134
:1016F0009F918F917F916F915F914F913F912F912A
:101700000F900FBE0F901F9018951F920F920FB65B
:101710000F9211242F933F934F935F936F937F9377
:101720008F939F93AF93BF93EF93FF93E09100014B
:10173000F09101010995FF91EF91BF91AF919F91B8
:101740008F917F916F915F914F913F912F910F906A
:101750000FBE0F901F9018951F920F920FB60F9209
:1017600011242F933F934F935F936F937F938F93A6
:101770009F93AF93BF93EF93FF938EEB91E00E9403
:101780001202FF91EF91BF91AF919F918F917F9145
:101790006F915F914F913F912F910F900FBE0F90DE
:1017A0001F9018951F920F920FB60F9211242F932E
:1017B0008F939F93EF93FF93E091CE01F091CF0130
:1017C0008081E091D401F091D50182FD1BC0908110
:1017D0008091D7018F5F8F732091D801821741F0DC
:1017E000E091D701F0E0E254FE4F958F8093D7014E
:1017F000FF91EF919F918F912F910F900FBE0F90BE
:101800001F9018958081F4CFEEEBF1E013821282E5
:1018100088EE93E0A0E0B0E084839583A683B7834D
:101820008AE191E09183808385EC90E095878487BD
:1018300084EC90E09787868780EC90E0918B808B9A
:1018400081EC90E0938B828B82EC90E0958B848B83
:1018500086EC90E0978B868B118E128E138E148EF1
:10186000EBE5F2E0138212828CE291E091838083B7
:1018700089E084838FEF858388E0868384E0878393
:1018800085E0808786E0818787E0828713861486DB
:1018900015861686178681E00C941008CF93DF9387
:1018A000CDB7DEB7A7970FB6F894DEBF0FBECDBF9A
:1018B000789484B5826084BD84B5816084BD85B52B
:1018C000826085BD85B5816085BD80916E00816037
:1018D00080936E00109281008091810082608093DD
:1018E00081008091810081608093810080918000DF
:1018F0008160809380008091B10084608093B1000A
:101900008091B00081608093B00080917A00846003
:1019100080937A0080917A00826080937A0080912F
:101920007A00816080937A0080917A008068809349
:101930007A001092C10061E08DE00E94240160E015
:1019400082E00E94240160E083E00E9424018CE890
:1019500091E0909303018093020180916900837F5D
:10196000846080936900E99AE091CE01F091CF0103
:1019700082E08083E091CA01F091CB011082E09176
:10198000CC01F091CD018FEC80831092D601E091D3
:10199000D201F091D30186E08083E091D001F091F3
:1019A000D101808180618083E091D001F091D101EB
:1019B000808188608083E091D001F091D1018081A5
:1019C00080688083E091D001F091D10180818F7D8A
:1019D000808384E00E941008CE0106969FA38EA308
:1019E000DE0111967D0198E9292E91E0392E2DE92D
:1019F000822E21E0922E8EE00E945501BC01990FAB
:101A0000880B990B0E940E1020E030E040EA50E471
:101A10000E94C31020E030EC4FE754E40E946B0FAB
:101A20006093B1017093B2018093B3019093B401BC
:101A30008FE00E945501BC01990F880B990B0E9401
:101A40000E1020E030E040EA50E40E94C31020E095
:101A500030E048EC52E40E94C31020E030EC4FE745
:101A600054E40E946B0F6093AD017093AE018093BC
:101A7000AF019093B00180E10E945501BC01990F24
:101A8000880B990B0E940E1020E030E040EA50E4F1
:101A90000E94C31020E030EC4FE754E40E946B0F2B
:101AA00020E030E040E250E40E94F90E20E030E017
:101AB00040E251E40E94C3106093A9017093AA010F
:101AC0008093AB019093AC0182E00E94CD0021E0B5
:101AD000892B09F020E02093A80181E00E940A08E8
:101AE0008BE39FE10197F1F760E080E00E94B60888
:101AF00088E691E00E94F90360E089E00E94B60860
:101B00006091B1017091B2018091B3019091B401E3
:101B100042E00E94CB0860E08FE00E94B60880E7B8
:101B200091E00E94F90361E080E00E94B60882E73C
:101B300091E00E94F90361E089E00E94B60860919B
:101B4000A9017091AA018091AB019091AC0142E092
:101B50000E94CB0861E08FE00E94B60889E791E01F
:101B60000E94F90362E080E00E94B6088BE791E0F2
:101B70000E94F90362E089E00E94B6086091AD011D
:101B80007091AE018091AF019091B00142E00E944E
:101B9000CB0862E08FE00E94B60882E891E00E94E4
:101BA000F90363E080E00E94B60884E891E00E94B7
:101BB000F9038091A80163E0882309F473C08EE0E3
:101BC0000E94B6088AE891E00E94F903E4E0F1E09F
:101BD000FA83E9831B821D821C8286E090E08C0FD1
:101BE0009D1F9F8B8E8B188E84E0898F9FEF9A8F1D
:101BF0001F8EF9A2E8A2A1E9B1E0BBA3AAA361EB01
:101C000071E0CE0180960E94CA0AF9A2E8A23BA226
:101C10002AA269EA71E0CE0180960E94CA0AF9A25E
:101C2000E8A29BA28AA26DEA71E0CE0180960E9492
:101C3000CA0AA70162EA71E0CE014B960E94A90987
:101C40008C01009759F0D090A801B7010E949C0325
:101C5000F8018481807886608483D0828EEB91E065
:101C600099A388A31BA21AA2FDA2ECA2BE01605EEA
:101C70007F4FCE014B960E94990409811A816C8195
:101C80007D8161157105A1F0DB018D919C919D8392
:101C90008C83D801ED91FC910280F381E02DC80185
:101CA0000995EDCF8DE00E94B6088DE891E08CCFCC
:101CB000C980DA80712C6E897F89888D7816D8F476
:101CC000B4E07B9E80011124060F171FF80162818A
:101CD00073816115710541F0D601ED91FC9102808F
:101CE000F381E02DC6010995F8011382128210825A
:101CF00011827394E0CF188EFFEFFA8F8EA19FA10F
:101D00006817790741F0D601ED91FC910280F381CB
:101D1000E02DC60109950E9467012B013C0188EB6B
:101D2000A82E8BE0B82EC12CD12C0E94670164191B
:101D3000750986099709683E734081059105A8F3E6
:101D4000B1E0AB1AB108C108D108E8EE4E0EE3E0ED
:101D50005E1E611C711CA114B104C104D10429F7D9
:101D600080E090E0892B09F446CE0E94FE01882392
:101D700009F441CE0E9400003ECEAA1BBB1B51E1DC
:101D800007C0AA1FBB1FA617B70710F0A61BB70BEB
:101D9000881F991F5A95A9F780959095BC01CD0190
:101DA0000895A1E21A2EAA1BBB1BFD010DC0AA1F9C
:101DB000BB1FEE1FFF1FA217B307E407F50720F0B4
:101DC000A21BB30BE40BF50B661F771F881F991F2F
:101DD0001A9469F760957095809590959B01AC0178
:101DE000BD01CF010895EE0FFF1F0590F491E02D86
:101DF00009945058BB27AA270E94110F0C948410F5
:101E00000E94761038F00E947D1020F039F49F3F38
:101E100019F426F40C9473100EF4E095E7FB0C947F
:101E20006D10E92F0E94951058F3BA1762077307D7
:101E30008407950720F079F4A6F50C94B7100EF4FA
:101E4000E0950B2EBA2FA02D0B01B90190010C01CA
:101E5000CA01A0011124FF27591B99F0593F50F4E2
:101E6000503E68F11A16F040A22F232F342F44273A
:101E7000585FF3CF469537952795A795F040539532
:101E8000C9F77EF41F16BA0B620B730B840BBAF002
:101E90009150A1F0FF0FBB1F661F771F881FC2F76D
:101EA0000EC0BA0F621F731F841F48F48795779581
:101EB0006795B795F7959E3F08F0B0CF9395880F3B
:101EC00008F09927EE0F9795879508950E9449107D
:101ED00008F481E008950E947F0F0C9484100E9402
:101EE0007D1058F00E94761040F029F45F3F29F0F1
:101EF0000C946D1051110C94B8100C9473100E9436
:101F0000951068F39923B1F3552391F3951B550B65
:101F1000BB27AA2762177307840738F09F5F5F4FBC
:101F2000220F331F441FAA1FA9F335D00E2E3AF0FB
:101F3000E0E832D091505040E695001CCAF72BD013
:101F4000FE2F29D0660F771F881FBB1F2617370764
:101F50004807AB07B0E809F0BB0B802DBF01FF2796
:101F600093585F4F3AF09E3F510578F00C946D10F6
:101F70000C94B8105F3FE4F3983ED4F386957795C0
:101F80006795B795F7959F5FC9F7880F911D96954F
:101F9000879597F90895E1E0660F771F881FBB1FAB
:101FA000621773078407BA0720F0621B730B840B58
:101FB000BA0BEE1F88F7E09508950E949D1088F0F7
:101FC0009F5798F0B92F9927B751B0F0E1F0660FFD
:101FD000771F881F991F1AF0BA95C9F714C0B1303E
:101FE00091F00E94B710B1E008950C94B710672FDC
:101FF000782F8827B85F39F0B93FCCF3869577956D
:102000006795B395D9F73EF4909580957095619555
:102010007F4F8F4F9F4F0895E89409C097FB3EF480
:1020200090958095709561957F4F8F4F9F4F992325
:10203000A9F0F92F96E9BB279395F69587957795A3
:102040006795B795F111F8CFFAF4BB0F11F460FF63
:102050001BC06F5F7F4F8F4F9F4F16C0882311F0BB
:1020600096E911C0772321F09EE8872F762F05C0CF
:10207000662371F096E8862F70E060E02AF09A956A
:10208000660F771F881FDAF7880F9695879597F95F
:102090000895990F0008550FAA0BE0E8FEEF1616F9
:1020A0001706E807F907C0F012161306E407F5074C
:1020B00098F0621B730B840B950B39F40A2661F0C0
:1020C000232B242B252B21F408950A2609F4A14063
:1020D000A6958FEF811D811D089597F99F6780E870
:1020E00070E060E008959FEF80EC089500240A946A
:1020F0001616170618060906089500240A941216E3
:102100001306140605060895092E0394000C11F415
:10211000882352F0BB0F40F4BF2B11F460FF04C0C2
:102120006F5F7F4F8F4F9F4F089557FD9058440F1B
:10213000551F59F05F3F71F04795880F97FB991F26
:1021400061F09F3F79F087950895121613061406E3
:10215000551FF2CF4695F1DF08C016161706180670
:10216000991FF1CF86957105610508940895E8944B
:10217000BB2766277727CB0197F908950E9449105E
:1021800008F48FEF08950E94D6100C9484100E94DA
:10219000761038F00E947D1020F0952311F00C94F9
:1021A0006D100C94731011240C94B8100E949510AB
:1021B00070F3959FC1F3950F50E0551F629FF0019A
:1021C000729FBB27F00DB11D639FAA27F00DB11DB3
:1021D000AA1F649F6627B00DA11D661F829F22273C
:1021E000B00DA11D621F739FB00DA11D621F839FC3
:1021F000A00D611D221F749F3327A00D611D231F99
:10220000849F600D211D822F762F6A2F11249F57E6
:1022100050409AF0F1F088234AF0EE0FFF1FBB1FE9
:10222000661F771F881F91505040A9F79E3F5105A8
:1022300080F00C946D100C94B8105F3FE4F3983E5E
:10224000D4F3869577956795B795F795E7959F5F52
:10225000C1F7FE2B880F911D9695879597F90895E4
:102260000E944910880B990B08950F931F93CF93E9
:10227000DF938230910510F482E090E0E0917502E6
:10228000F091760230E020E0B0E0A0E0309799F4E1
:102290002115310509F44AC0281B390B24303105BA
:1022A000D8F58A819B816115710589F1FB019383C2
:1022B0008283FE0111C04081518102811381481740
:1022C0005907E0F04817590799F4109761F01296F2
:1022D0000C93129713961C933296CF01DF91CF91F6
:1022E0001F910F9108950093750210937602F4CF19
:1022F0002115310551F04217530738F0A901DB01D0
:102300009A01BD01DF01F801C1CFEF01F9CF909330
:10231000760280937502CDCFFE01E20FF31F819309
:1023200091932250310939832883D7CF20917302AA
:1023300030917402232B41F420910801309109015E
:1023400030937402209373022091060130910701AB
:102350002115310541F42DB73EB740910A01509146
:102360000B01241B350BE0917302F0917402E2170C
:10237000F307A0F42E1B3F0B2817390778F0AC01A8
:102380004E5F5F4F2417350748F04E0F5F1F509385
:10239000740240937302819391939FCFF0E0E0E049
:1023A0009CCFCF93DF930097E9F0FC013297138223
:1023B0001282A0917502B0917602ED0130E020E02A
:1023C0001097A1F420813181820F931F2091730215
:1023D000309174022817390709F061C0F093740234
:1023E000E0937302DF91CF910895EA01CE17DF07E2
:1023F000E8F54A815B819E0141155105B1F7E9017C
:10240000FB83EA8349915991C40FD51FEC17FD074F
:1024100061F4808191810296840F951FE90199836F
:102420008883828193819B838A83F0E0E0E0129627
:102430008D919C9113970097B9F52D913C9111972F
:10244000CD010296820F931F209173023091740286
:102450002817390739F6309751F510927602109205
:102460007502B0937402A0937302BCCFD383C2836E
:1024700040815181840F951FC817D90761F44E5FC1
:102480005F4F88819981480F591F518340838A810A
:102490009B81938382832115310509F0B0CFF0939E
:1024A0007602E09375029ECFFD01DC01C0CF13825E
:1024B0001282D7CFB0E0A0E0E0E6F2E10C94221364
:1024C0008C01009751F4CB010E9435118C01C80199
:1024D000CDB7DEB7E0E10C943E13FC01E60FF71F29
:1024E0009C0122503109E217F30708F49DC0D9017D
:1024F000CD91DC911197C617D70798F0C530D1055B
:1025000030F3CE0104978617970708F3C61BD70B45
:102510002297C193D1936D937C93CF010E94D111E7
:10252000D6CF5B01AC1ABD0A4C018C0E9D1EA0914A
:102530007502B0917602512C412CF12CE12C1097B0
:1025400031F580917302909174028815990509F014
:102550005CC04616570608F058C08091060190915D
:102560000701009741F48DB79EB740910A01509141
:102570000B01841B950BE817F90708F055C0F09381
:102580007402E0937302F90171836083A0CF8D918F
:102590009C91119712966C90129713967C901397BA
:1025A000A815B90559F56C0142E0C40ED11CCA1436
:1025B000DB0420F1AC014A195B09DA011296159788
:1025C00080F06282738251834083D9016D937C9342
:1025D000E114F10471F0D7011396FC93EE93129776
:1025E00076CF22968C0F9D1FF90191838083F30192
:1025F000EFCFF0937602E093750269CF4816590643
:1026000008F42C017D01D3019ACFCB010E94351132
:102610007C01009749F0AE01B8010E941713C80170
:102620000E94D111870153CF10E000E050CFFB0191
:10263000DC0102C001900D9241505040D8F708953E
:102640002F923F924F925F926F927F928F929F92C2
:10265000AF92BF92CF92DF92EF92FF920F931F93B0
:10266000CF93DF93CDB7DEB7CA1BDB0B0FB6F89461
:10267000DEBF0FBECDBF09942A88398848885F84A1
:102680006E847D848C849B84AA84B984C884DF8012
:10269000EE80FD800C811B81AA81B981CE0FD11DF6
:1026A0000FB6F894DEBF0FBECDBFED010895F894CC
:0226B000FFCF5A
:1026B20093019301100100007702800000000000E6
:1026C200110B0E0B0A0B0000000034029401C10131
:1026D2008102F201D001E40100000000C50894016A
:1026E200A202A1022F2F22225C5C6208660C6E0AF3
:1026F200720D7409005C7530303030006E756C6C90
:1027020000747275650066616C7365006E616E00BF
:10271200696E66006F76660054656E73616F3A008B
:102722005600436F72722E3A00410054656D702E4E
:102732003A004300466F746F3A004F4E004F4646D0
:102742000074656E73616F00636F72720074656D01
:082752007000666F746F000057
:00000001FF
