:100000000C9450010C94C3110C9498110C946D1124
:100010000C9442110C9417110C94EC100C94C11018
:100020000C9496100C9481010C9481010C94810124
:100030000C9481010C9481010C9481010C94810138
:100040000C9481010C9481010C9481010C94810128
:100050000C9481010C9481010C9481010C944C103E
:100060000C9481010C94C0120C9496120C94810192
:100070000C9481010C9481010C9481010C948101F8
:100080000C9481010C9481010C9481010C948101E8
:100090000C946C120C9442120C9481010C9481010A
:1000A0000C9481010C9481010C9481010C948101C8
:1000B0000C9481010C9481010C9481010C948101B8
:1000C0000C9481010C9481010C9481010C94181200
:1000D0000C94EE110C9481010C9481010C9481011B
:1000E0000C9481010C94DC030C946A020C94F902C8
:1000F0000C9466020C942B020C9446100C945C0237
:100100000C9445030C9458020C944A020C94DB03A3
:100110000C9452020C9482020C9470020C942F02E4
:100120000C9449100C947A020C943A020C944E02EE
:100130000C9437020C94EB020C9433020C9492034F
:100140000C94D7020C94EA120C9414020C94400202
:100150000C9442100C9419020C94C8020C94860A58
:100160000C9444020C946002CDCCCC3D0AD7233CC5
:1001700017B7D13877CC2B329595E6241FB14F0AAB
:10018000000020410000C84200401C4620BCBE4C7C
:10019000CA1B0E5AAEC59D7400000A0B02090C0D55
:1001A0000E0807030401000000000000000000002A
:1001B000000000000000000000000000000000003F
:1001C00000000000121110000000000000000000FC
:1001D000000000000000000000000000000000001F
:1001E0002200250028002B002E00310034000201DF
:1001F0000000050108010B01000021002400270078
:100200002A002D0030003300010100000401070125
:100210000A0105050505070508080808020202028B
:100220000A0A080804040404010101010101010192
:100230000303030303030303040707070C0C0C0C5D
:100240000C0C0C0C02020202060606060606060646
:100250000B0B0B0B0B0B0B0B0102102020080810D3
:100260002040102040800201020108040201010226
:1002700004081020408080402010080402018004FF
:10028000020180402010080402010804020101025A
:100290000408102040800102040810204080EA1267
:1002A00011241FBECFEFD1E2DEBFCDBF00E00CBFF7
:1002B00024E0A2EBB2E001C01D92AD3BB207E1F732
:1002C00012E0A0E0B2E0EEEEF2E300E00BBF02C00D
:1002D00007900D92A23BB107D9F711E0C0E5D1E03C
:1002E00000E006C021970109802FFE010E944616FA
:1002F000CF34D10780E00807A9F70E9481130C943E
:1003000075190C94000090E0FC01E85AFD4F24910F
:100310008E5E9D4FFC018491882399F090E0880FB8
:10032000991FFC01E850FE4FA591B491FC01E252E7
:10033000FE4F859194918FB7F894EC91E22BEC935A
:100340008FBF0895FC01A089B18982E08C93A485B8
:10035000B5851C92A685B7858FEC8C93108EA489E9
:10036000B58986E08C93A289B3898C9180618C9346
:10037000A289B3898C9188608C93A289B3898C916E
:1003800080688C930288F389E02D80818F7D808343
:100390000895CF93DF93EC0188819981DC01ED9181
:1003A000FC910190F081E02D64E270E019950097D6
:1003B00041F02FE1FC01238321E02283DF91CF91E3
:1003C000089521E02A83FACF282F30E0F901E8567A
:1003D000FE4F9491F901E85AFD4F44912E5E3D4F36
:1003E000F9012491222309F435C0992311F1915088
:1003F0009231F8F4E92FF0E08827EE5FFD4F8F4F40
:100400000C9446163302370214022B022F021902F3
:100410003A02400244024A024E02520258025C0270
:100420001902600266026A02809180008F778093D1
:100430008000E22FF0E0EE0FFF1FE252FE4FA59189
:10044000B4918FB7F894EC91611148C040954E2358
:100450004C938FBF0895809180008F7DE8CF80916D
:100460008000877FE4CF84B58F7784BDE2CF84B5E9
:100470008F7DFBCF8091B0008F778093B000D9CF74
:100480008091B0008F7DF9CF809190008F7780931D
:100490009000CFCF809190008F7DF9CF8091900018
:1004A000877FF5CF8091A0008F778093A000C1CF88
:1004B0008091A0008F7DF9CF8091A000877FF5CF3C
:1004C000809120018F7780932001B3CF809120010C
:1004D0008F7DF9CF80912001877FF5CF4E2BB8CF4C
:1004E0008091BF029091C00201969093C0028093C8
:1004F000BF0208950895DC01ED91FC910190F08117
:10050000E02D1994AF92BF92CF92DF92EF92FF92BB
:100510000F931F93CF93DF936C017B018B01040F2B
:10052000151FEB015E01AE18BF08C017D10759F0C7
:100530006991D601ED91FC910190F081E02DC60109
:100540001995892B79F7C501DF91CF911F910F91F3
:10055000FF90EF90DF90CF90BF90AF900895FC0197
:10056000A089B1898C91A689B78982FD0FC09C9121
:10057000818D8F5F8F73228D821749F0A18DAE0F11
:10058000BF2FB11D5D969C93818F08958C91089526
:10059000FC01538D448D252F30E0842F90E0821B89
:1005A000930B541710F0CF96089501970895FC010E
:1005B000918D828D981761F0A28DAE0FBF2FB11D66
:1005C0005D968C91928D9F5F9F73928F90E00895BE
:1005D0008FEF9FEF0895FC01918D828D981731F078
:1005E000828DE80FF11D858D90E008958FEF9FEFCC
:1005F0000895FC01918D228D892F90E0805C9F4FA2
:10060000821B91098F73992708958AEC92E00E94CA
:10061000F90221E0892B09F420E0822F089587E672
:1006200093E00E94F90221E0892B09F420E0822F57
:10063000089584E094E00E94F90221E0892B09F4F6
:1006400020E0822F0895FC01A48DA80FB92FB11DC1
:10065000A35ABF4F2C91848D90E001968F739927F8
:10066000848FA689B7892C93A089B1898C918370D6
:1006700080648C93938D848D981306C00288F389CF
:10068000E02D80818F7D80830895EF92FF920F93FC
:100690001F93CF93DF93EC0181E0888F9B8D8C8D2E
:1006A00098131AC0E889F989808185FF15C09FB722
:1006B000F894EE89FF896083E889F98980818370E5
:1006C000806480839FBF81E090E0DF91CF911F9194
:1006D0000F91FF90EF900895F62E0B8D10E00F5FB5
:1006E0001F4F0F731127E02E8C8D8E110CC00FB68B
:1006F00007FCFACFE889F989808185FFF5CFCE0123
:100700000E942303F1CFEB8DEC0FFD2FF11DE35A77
:10071000FF4FF0829FB7F8940B8FEA89FB898081A5
:100720008062CFCFCF93DF93EC01888D8823B9F01F
:10073000AA89BB89E889F9898C9185FD03C08081EC
:1007400086FD0DC00FB607FCF7CF8C9185FFF2CF69
:10075000808185FFEDCFCE010E942303E9CFDF9199
:10076000CF91089580E090E0892B29F00E94190331
:1007700081110E94000080E090E0892B29F00E9406
:100780000F0381110E94000080E090E0892B29F086
:100790000E94050381110E94000080E090E0892BF7
:1007A00049F080E090E0892B29F00E94000081113F
:1007B0000C9400000895089590E080E008956F3F44
:1007C000B1F0E62FE295EF7044E0E49F9001112430
:1007D000DC01ED91FC91E20FF31F6F70B8E06B9FAD
:1007E000C001112462817381860F971F089590E0E4
:1007F00080E00895982F80336CF08A3324F08F3591
:1008000024F08B3724F481E0089581341CF081E0DA
:100810009B350CF080E008950F931F93CF93DF93E7
:10082000EC018A85811140C00F8118852FB7F8949B
:100830008091C6029091C702A091C802B091C902EE
:100840002FBFF80180879187A287B387D801ED91E8
:10085000FC910284F385E02DC801199597FF2AC009
:100860002FB7F8948091C6029091C702A091C80258
:10087000B091C9022FBFF80140855185628573850B
:10088000841B950BA60BB70B44815581668177813C
:1008900084179507A607B707C8F28FEF9FEF97FD5C
:1008A00080E0898781E08A878985DF91CF911F91D8
:1008B0000F9108959927F3CF1F93CF93DF93EC0106
:1008C000162F0E940C04811306C01A8681E0DF9166
:1008D000CF911F91089580E0FACF0F931F93CF938C
:1008E000DF938C01EB018991882369F0C8010E9494
:1008F0000C04882379F0FE013197908198130DC084
:10090000F8011286F0CF90E080E0DF91CF911F9147
:100910000F91089582E090E0F8CF83E090E0F5CF6A
:10092000CF93DF93EC01CE010E940C048B304CF48A
:1009300089305CF4882359F081E08E8390E080E078
:100940000BC08D3011F08032B9F71A86ECCF8E8152
:10095000811105C081E090E0DF91CF91089582E0A0
:1009600090E0FACF4F925F926F927F928F929F9218
:10097000AF92BF92CF92DF92EF92FF920F931F93AD
:10098000CF93DF93EB01DC012C912B32D9F12D3287
:10099000D1F50196FF24F394FC01208130ED320F54
:1009A0003A3018F02E3209F042C18C0160E070E05C
:1009B000CB01F801219130ED832E820E39E03815FC
:1009C00020F16A3949E97407840749E1940738F549
:1009D000AAE0B0E09B01AC010E940A16912CB12C58
:1009E000A12C2401350140945094609470944616D3
:1009F00057066806790698F0680D791D8A1D9B1DBB
:100A00008F01D7CF0196F12CC7CF211108C0FF204D
:100A1000E9F161307105810550E89507A0F0E12CFE
:100A2000BAE08B2E912CA12CB12C6115710530E808
:100A300083079105B0F1A50194010E942416CA0113
:100A4000B901E394F2CF2C8120782A602C839B019A
:100A5000AC0188279927DC01821B930BA40BB50BF3
:100A600088839983AA83BB838F2DDF91CF911F91B8
:100A70000F91FF90EF90DF90CF90BF90AF909F903D
:100A80008F907F906F905F904F9008952C81207889
:100A900028602C83688379838A839B83FF24F39463
:100AA000E3CFF801D8012D918D0130ED320F3A30AE
:100AB00010F4E394F6CF2E3201F58F010F5F1F4F34
:100AC000F8010F5F1F4F2081A0EDDA2ED20EB9E0A2
:100AD000BD1598F06C3CECEC7E07ECE08E079105C0
:100AE00078F7AAE0B0E09B01AC010E940A166D0DF8
:100AF000711D811D911DEA94E3CF20812F7D10E0AF
:100B000000E0253409F05BC021812D32D1F5329609
:100B1000CC24C394DF0110E000E02E2D0E2C000C3D
:100B2000330B5AE0B52EFD01DD9040ED4D0D4A30FE
:100B300008F040C0B09EA001B19E500D11240D2DB3
:100B4000DD0C110B00531109040F151FA801420FF2
:100B5000531F473251053CF38C81CC20C9F040E053
:100B600050E060E070E8F11003C040E050E0BA01EE
:100B700080788C608C83488359836A837B83FC2CC8
:100B800073CF2B3219F03196C12CC4CF3296FCCFE3
:100B900040E050E060E87FEFF11004C040E050E03A
:100BA00060E87FE780788C608C83488359836A8310
:100BB0007B8374CFCC2019F0119501951109208108
:100BC000211135C00E0D111DE7FC1A950E94EB1482
:100BD00030E8C32E31E0D32E101611063CF01195EB
:100BE0000195110948E6C42E41E0D42EE12C0115EF
:100BF000110591F000FF0CC024E0E29EF0011124E9
:100C0000EC0DFD1D25913591459154910E944C1597
:100C100015950795E394EBCFF11090582C8120782F
:100C20002C602C83688379838A839B8337CFF12C54
:100C30001BCFCF93DF9300D01F921F92CDB7DEB7AB
:100C4000FC0194819F77963091F030F4943020F538
:100C500060E070E0CB0111C09A30B9F09C3051F1E6
:100C60009830B1F7608171818281938104C0608185
:100C700070E090E080E00E94EB140F900F900F90D6
:100C80000F900F90DF91CF910895608171818281E3
:100C900093810E94ED14F1CF808191811D82BE016C
:100CA0006F5F7F4F04960E94B204CE0101960E94AE
:100CB0001906E3CF6081718182819381DECFFC01CF
:100CC0009289915084E0989F90011124A089B18964
:100CD000A20FB31F1296ED91FC9113973097E9F094
:100CE00011962C9111978C912817B8F481E0820FFE
:100CF00011968C9388E0289FA0011124E40FF51F22
:100D0000309759F014828FEF858317821682BF01C6
:100D1000892F8295807F820F089560E070E08FEFC9
:100D20000895DF92EF92FF920F931F93CF93DF937B
:100D3000EC017B01D12C688979898A89D816E0F485
:100D400084E0D89E80011124060F171FD801129647
:100D50006D917C916115710541F0D701ED91FC9188
:100D60000280F381E02DC7011995F80113821282E8
:100D700010821182D394DFCF1A8A8FEF8C8BC61723
:100D8000D70761F0D701ED91FC910280F381E02D4E
:100D9000C7011995D98BC88B84E08B8BDF91CF91DC
:100DA0001F910F91FF90EF90DF900895DB01ED917F
:100DB000FC9111970280F381E02DBC01CD011994C3
:100DC0000F931F93CF93DF93EC01088119818B81DF
:100DD0009C81009749F0FC01208131813C832B8369
:100DE000B8010E94D606F3CF68817981CE010596BD
:100DF000DF91CF911F910F910C949106CF93DF93C8
:100E0000EC01E881F981B0E0A0E03097F9F09F01B2
:100E10002C5F3F4F62177307A1F492819150928328
:100E2000911114C080819181109741F08D939C9312
:100E3000BA01CF01DF91CF910C94D60699838883B4
:100E4000F7CFDF010190F081E02DDFCFDF91CF916F
:100E500008958F929F92AF92BF92CF92DF92EF92BE
:100E6000FF920F931F93CF93DF938C01EB01FC0153
:100E7000848180FF0AC048815981608171816C5FE3
:100E80007F4FCE0103960E94FE06F8018481807692
:100E900081F10115110569F1D0805E01F5E1AF0E18
:100EA000B11C4E0183E0880E911CEFEFDE16F1F0CD
:100EB0006D2DC5010E94DF037C01FC01C58084818A
:100EC00087FF07C04881598166817781C4010E94EC
:100ED000FE06BE01C7010E942907F70184818078C0
:100EE0008483898D8583D98EDC2CDFCFF801D08275
:100EF000D182DF91CF911F910F91FF90EF90DF9002
:100F0000CF90BF90AF909F908F900895EF92FF92F7
:100F10000F931F93CF93DF937C018B01EA016F3F07
:100F2000710509F0B0F4E881F9810480F581E02DC4
:100F3000AB014B5F5F4FBC01CE011995009749F0A3
:100F4000FC010383DF91CF911F910F91FF90EF90F0
:100F50000895E881F9810280F381E02DB701CE0187
:100F6000199590E080E0EECFFF920F931F93CF93FF
:100F7000DF93EC01F62E8A819B810097C9F06C818A
:100F80007D81FC0123812617170691F408811981C0
:100F9000F80140815181660F771F6F5F7F4F0E947C
:100FA0008607009719F421E0F80122839B838A8346
:100FB0008A819B81009759F02C813D81A9014F5F67
:100FC0005F4F5D834C83820F931FFC01F482DF919E
:100FD000CF911F910F91FF9008959F92AF92BF9272
:100FE000CF92DF92EF92FF920F931F93CF93DF93F5
:100FF00000D01F921F92CDB7DEB78C010E940C0467
:10100000D82EF8011286F12CE12C60EFC62EC80113
:101010000E940C04F8011286D81609F4B3C081119D
:1010200013C082E090E00F900F900F900F900F9000
:10103000DF91CF911F910F91FF90EF90DF90CF90B4
:10104000BF90AF909F9008958C3509F099C0C8016A
:101050000E940C04882329F3E0E4F2E0853709F0CC
:1010600083C0F801128654E0952EB12CA12CC80142
:101070000E940C048823A9F2813434F48053803117
:1010800030F083E090E0CFCF8F7D8753F8CF44E0FE
:10109000AA0CBB1C4A95E1F7A82AF80112869A947B
:1010A0009110E5CFC501985D8115944020F475013C
:1010B000F3E0FF22ACCFC5019C5D81159440A8F4FC
:1010C00083E0B822B701762F6627770F770F6A295A
:1010D0007B2990E080E001966038710581059105DB
:1010E00040F4C8010E94B40792CFB50190E080E0BF
:1010F000F3CF1982262F2F7320682A8326E0969536
:101100008795779567952A95D1F76032710580F4B8
:10111000606C6B835E01E4E0AE0EB11CF501629180
:101120005F01662309F473CFC8010E94B407F6CFAC
:10113000262F2F7320682B8386E0769567958A95F6
:10114000E1F76031710538F4606E6C835E01F5E0A3
:10115000AF0EB11CE3CF60686C83CD825E0126E0E8
:10116000A20EB11CDBCF32969081992309F489CF6E
:101170008913F9CF8181882309F483CFF80112867E
:10118000682FAFCF82819381892B19F484E090E09E
:101190004ACF90E080E047CFAF92BF92CF92DF92EC
:1011A000EF92FF920F931F93CF93DF93DC01129680
:1011B000ED91FC91139714968D919C911597E80FE2
:1011C000F91F14820D911C91119714966D917C91C9
:1011D000159712968D919C9113979C012C5F3F4F10
:1011E000E801EB81FC817B01E20EF31E3097B9F040
:1011F00043814617170679F45901AF014C5F5F4FE1
:10120000EA14FB0499F1E501C9905E01EA01D99065
:10121000AE01CD14A9F30190F081E02DE7CFED01EF
:10122000F801408151810E948607FC01892B21F43D
:1012300081E0D80112968C93A881B98113968D9183
:101240009C911497918380831496FC93EE9313974B
:101250001B821A82CF01DF91CF911F910F91FF90D6
:10126000EF90DF90CF90BF90AF90089582818F5F15
:101270008283F0CFCF93DF93EC0160E08E810E94F8
:10128000E40161E08E810E94E40160E08E810E94B1
:10129000E4018BE891E00197F1F7DF91CF91089598
:1012A000CF92DF92EF92FF920F931F93CF93DF9332
:1012B0006C017C0187E0E80EF11CD0E0C0E0062F55
:1012C00010E0B8010C2E02C0759567950A94E2F7FC
:1012D0006170F70181917F010E94E4012196C43081
:1012E000D10579F7C601DF91CF911F910F91FF9042
:1012F000EF90DF90CF900C943A09CF92DF92EF926B
:10130000FF920F931F93CF93DF93EC01F62E642F80
:101310008C810E94E4018D818F3F19F060E00E9472
:10132000E4010F2D10E08F8584FF25C06E0187E05A
:10133000C80ED11CF12CE12CB8010E2C02C0759501
:1013400067950A94E2F76170F60181916F010E943E
:10135000E401FFEFEF1AFF0A88E0E816F10461F7F5
:10136000CE01DF91CF911F910F91FF90EF90DF9011
:10137000CF900C943A09B80184E0759567958A95E9
:10138000E1F7CE010E9450096F2DCE01DF91CF9180
:101390001F910F91FF90EF90DF90CF900C94500928
:1013A00040E0682F81EA94E00C947D09CF93DF93AD
:1013B000613029F09091B00498609093B0046093EC
:1013C000B4041092B50490E49093B6048093B704EB
:1013D000805C8093B8048091A5040E948301809171
:1013E000A6048F3F11F00E9483018091A7040E9400
:1013F0008301C1EAD4E09E01215A34408091B004B7
:1014000084FD0AC084E090E02196281739073CF457
:101410008E810E948301EFCF88E090E0F5CF8BE3CF
:101420009DE00197F1F760E08091A5040E94E4013E
:1014300060E08091A7040E94E4018091A6048F3FA0
:1014400019F060E00E94E4018091B00484FD39C08D
:1014500063E081EA94E00E945009CBE4D6E4CE0137
:101460000197F1F763E081EA94E00E945009219727
:10147000F1F763E081EA94E00E94500983E592E08D
:101480000197F1F762E081EA94E00E9450098091AF
:10149000B00480620E94D00984E08093B1048CE0A3
:1014A0000E94D00981E00E94D0098BE39FE101975F
:1014B000F1F782E08093B20486E0DF91CF910C9443
:1014C000D00980620E94D0098BE496E40197F1F77D
:1014D0008091B00480620E94D00983E592E0019778
:1014E000F1F78091B00480620E94D009D0CF909132
:1014F000B404691710F06FEF690FE62FF0E0EF55B5
:10150000FB4F9489890F80680C94D00941E00E94B8
:101510007D0981E090E00895FB0101900020E9F74A
:101520003197AF01461B570BDC01ED91FC91028016
:10153000F381E02D19948F929F92AF92BF92EF9218
:10154000FF920F931F93CF93DF93CDB7DEB7A19791
:101550000FB6F894DEBF0FBECDBF7C01FA01CB0100
:1015600019A2223008F42AE08E010F5D1F4F822E4F
:10157000912CB12CA12CBF01A50194010E9424162D
:10158000F901CA016A300CF5605DD8016E938D01D6
:10159000232B242B252B79F790E080E0109721F066
:1015A000BD01C7010E948C0AA1960FB6F894DEBF58
:1015B0000FBECDBFDF91CF911F910F91FF90EF90A4
:1015C000BF90AF909F908F900895695CDECFBC0173
:1015D00081EA94E00C948C0ACF93DF93AC01990FCD
:1015E000660B770B2AE084E094E00E949B0AEC01F2
:1015F00061E572E084E094E00E948C0A8C0F9D1FEC
:10160000DF91CF9108952F923F924F925F926F9208
:101610007F928F929F92AF92BF92CF92DF92EF9282
:10162000FF921F93CF93DF93EC016A017B01722E2F
:10163000AB019601CB01B6010E94611764E572E02F
:10164000811126C046015701E894B7F82FEF3FEF0C
:101650004FE75FE7C501B4010E94611781110CC01B
:101660002FEF3FEF4FE75FE7C501B4010E94E6149B
:1016700068E572E0181664F02FEF3FEF4FE75FE484
:10168000C701B6010E945C171816B4F46CE572E04D
:10169000CE01DF91CF911F91FF90EF90DF90CF901F
:1016A000BF90AF909F908F907F906F905F904F9082
:1016B0003F902F900C948C0A2FEF3FEF4FE75FEC99
:1016C000C701B6010E94E61487FDE0CF20E030E0BC
:1016D000A901C701B6010E94E614312C212C87FF15
:1016E00009C06DE2CE010E947B021C01F7FAF09462
:1016F000F7F8F09410E060E070E080E09FE371168E
:1017000041F020E030E040E251E40E94BB161F5F50
:10171000F6CFA70196010E944F162B013C010E94B3
:101720002D174B015C012AE0BC01A401CE010E94EF
:101730009B0A7C01E20CF31C1123C1F1C501B40129
:101740000E94EB149B01AC01C301B2010E944E1632
:101750004B015C016EE2CE010E947B02E80EF91E95
:10176000115020F120E030E040E251E4C501B40125
:101770000E944C152B013C010E942D174B01B12CEE
:10178000A12C2AE0B501A401CE010E949B0AE80E1B
:10179000F91EC501B4010E94EB149B01AC01C30109
:1017A000B2010E944E164B015C01DACFC701DF91F6
:1017B000CF911F91FF90EF90DF90CF90BF90AF90AF
:1017C0009F908F907F906F905F904F903F902F9061
:1017D0000895CF93DF93AB01BC0122E084E094E055
:1017E0000E94030BEC0161E572E084E094E00E944A
:1017F0008C0A8C0F9D1FDF91CF910895CF92DF92BD
:10180000EF92FF9281E00E94D0098BE39FE1019764
:10181000F1F760E080E00E94770A80E692E00E94A3
:10182000E70A60E089E00E94770A4091BB0250918C
:10183000BC026091BD027091BE0222E081EA94E098
:101840000E94030B60E08FE00E94770A88E692E036
:101850000E94E70A61E080E00E94770A8AE692E04F
:101860000E94E70A61E089E00E94770A4091B7028E
:101870005091B8026091B9027091BA0222E081EAF7
:1018800094E00E94030B61E08FE00E94770A81E7F9
:1018900092E00E94E70A62E080E00E94770A83E714
:1018A00092E00E94E70A62E089E00E94770A409194
:1018B000B3025091B4026091B5027091B60222E079
:1018C00081EA94E00E94030B62E08FE00E94770AB5
:1018D0008AE792E00E94E70A63E080E00E94770ACC
:1018E0008CE792E00E94E70A8091B20263E08823CD
:1018F000A9F18EE00E94770A82E892E00E94E70A4E
:1019000061E083E10E94770A89E892E00E94E70A99
:1019100062E083E10E94770AC090BF02D090C002CB
:101920000D2C000CEE08FF082AE0B701A601F7FE17
:101930000DC06DE281EA94E00E947B0244275527A6
:10194000BA014C195D096E097F092AE081EA94E029
:10195000FF90EF90DF90CF900C949B0A8DE00E9457
:10196000770A85E892E0CACFDF92EF92FF920F9359
:101970001F93CF93DF936115710561F460E070E010
:101980008FEF9D2DDF91CF911F910F91FF90EF90E1
:10199000DF9008958A01EB01DC01FC900B5E1F4F84
:1019A0006F2DC8010E94DF03009741F3FC01E58021
:1019B000009721F30680F781E02DDE010D900020D5
:1019C000E9F79D01215031092C1B3D0BB0E0A0E04F
:1019D000309739F0DF010D900020E9F71197AE1B29
:1019E000BF0B2A173B0751F4DE012C0F3D1FA21736
:1019F000B30769F05D9141915417C9F36E2DC80189
:101A00000E94DF03009709F4B9CFFE2CCFCFBC01B1
:101A10008F2DDE2CB6CFFC01408151816281738114
:101A2000CA014A9661F0FA01268D25FF08C00E947E
:101A3000B40C6115710519F0CB010C94190660E026
:101A400070E0CB010895CF93FC0140815181628108
:101A50007381CA014A9611F4C0E013C0FA01268DC1
:101A600025FFFACF0E94B40CFB013097A9F38481C3
:101A70008F778830E1F040F4882371F38630A9F045
:101A8000C1E08C2FCF9108958A3089F08C30C1F756
:101A9000C1E020E030E0A901608171818281938101
:101AA0000E94E6148111EDCFD7CFC081EACFC1E00B
:101AB00080819181A281B381892B8A2B8B2B09F79D
:101AC000CBCF8F929F92AF92BF92CF92DF92EF9245
:101AD000FF920F931F93CF93DF936C018B01DB0178
:101AE0005996FC90BFEFFB1621F16F2DC80145966A
:101AF0000E94DF03EC018D81F801818F209709F4AA
:101B000096C01C828FEF8D831F821E82D601119694
:101B10006C916F3F09F49FC0C80145960E94DF0396
:101B2000FC01F582D6011196FC92BE018F2D9D809D
:101B300084C05B01F5E0AF0EB11CDB01ED90FC90C1
:101B4000119757968C91882349F0C5010E945F0632
:101B5000C62FD72F209711F0F82ED8CFF801C789BC
:101B6000908DC91325C0C03109F461C0CC0F6589BF
:101B70007689D701ED91FC91B4E0CB9FA0011124AF
:101B8000A616B70609F04BC00190F081E02DBA010E
:101B9000C7011995009709F44AC020E1F501DC015D
:101BA00001900D922A95E1F7F801968B858BC08FF5
:101BB000D8015596CD91DC91569757968C915797B1
:101BC00021E0280F57962C93B4E08B9FC00111247D
:101BD000C80FD91F90E1892E203111F48FE0882E93
:101BE000E8E08E9EB0011124D701ED91FC910190A7
:101BF000F081E02DC70119959B838A83892B09F415
:101C0000812C88821982CD2B91F0C5010E945F063C
:101C1000C62FD72FF82E209709F078CF08C0048060
:101C2000F581E02DC7011995009709F0BDCF81E03E
:101C3000F801828360E070E08FEF992DDF91CF9102
:101C40001F910F91FF90EF90DF90CF90BF90AF90DA
:101C50009F908F900895F601F082F18266CF8F9267
:101C60009F92AF92BF92CF92DF92EF92FF920F932B
:101C70001F93CF93DF93EC018B01D42E0E9490042D
:101C80007C01892B09F047C0CE010E940C048636E6
:101C900009F452C124F5873229F08B3561F1823283
:101CA00009F053C11D821C828A819B81892B31F4EA
:101CB000888199810E94C9019B838A83CE010E94F9
:101CC000ED077C01892B39F5CE010E94CC08F80183
:101CD0002481207825602483918380831CC08437ED
:101CE00009F412C18B3709F45BC08E3609F02DC19F
:101CF00066E972E012C1F80184818078806484838F
:101D00000115110519F08FEF80838183D11011C067
:101D100025E0E22EF12CC701DF91CF911F910F91A9
:101D2000FF90EF90DF90CF90BF90AF909F908F90FB
:101D300008951A86CE010E949004009709F085C08C
:101D40006DE5CE010E945C048111E5CFDA946B85CC
:101D50007C85C8010E94610D6115710521F484E044
:101D6000E82EF12CD8CF4D2DCE010E942F0E0097DA
:101D700009F06BC0CE010E949004009709F065C085
:101D80006DE5CE010E945C048111C5CF6CE2CE01ED
:101D90000E945C048111DBCF93E0E92EF12CBBCFD4
:101DA000F80184818078806284830115110519F01F
:101DB0008FEF80838183DD2009F4AACF1A86CE01BC
:101DC0000E949004009709F040C06DE7CE010E9488
:101DD0005C048111A0CFBB24BA94BD0C1D821C826F
:101DE0008A819B81892B31F4888199810E94C90164
:101DF0009B838A83CE010E940C048732E1F08232F9
:101E0000D1F0CE010E940C04D82E0E94FA03882340
:101E100019F21A866D2DCE010E94B407CE010E94E0
:101E20000C04D82E0E94FA038111F3CF8A819B8182
:101E3000892B31F494CFCE010E94ED07009729F44D
:101E4000CE010E949004009711F07C0164CF6AE3F8
:101E5000CE010E945C04882309F49ECFEA81FB81B5
:101E60008C819D81E80FF91F14824B855C856A8106
:101E70007B816C5F7F4FC8010E94B40CCB016B016A
:101E8000672BC9F5CE010E94CC084C016B857C857F
:101E9000C8010E94610D6B016115710509F45FCFE6
:101EA000FB01848180688483F4E08F0E911CF6012D
:101EB000978286824B2DB601CE010E942F0E00978D
:101EC00021F6CE010E949004009709F0BECF6DE785
:101ED000CE010E945C0481111ECF6CE2CE010E94F3
:101EE0005C04882309F458CFCE010E949004009727
:101EF00009F474CFAACF6B857C850E942907F6016F
:101F0000848180788483D6CFF8018481807886604C
:101F1000848381E080836BE872E0CE01DF91CF9112
:101F20001F910F91FF90EF90DF90CF90BF90AF90F7
:101F30009F908F900C946D04F80184818078866066
:101F40008483108260E972E0E8CFCE010E940C0425
:101F50005E01FDE0AF0EB11CD12C9A2CCB2C80334E
:101F600074F08A3374F49FE3D91699F01A86D394E7
:101F7000F50181935F01CE010E940C04F0CF8B32FA
:101F800091F393ED980F923070F3982F9F7D9534D5
:101F900051F3CD0DD11D1D86B801892D9C2D0E94B8
:101FA000B2048111B8CEF8CEAF92BF92CF92DF9239
:101FB000EF92FF920F931F93CF93DF93CDB7DEB7CE
:101FC000CD54D1090FB6F894DEBF0FBECDBF8C0142
:101FD0006B01F42EFC016081718105960E949106CF
:101FE000F8011282A080B180F8018381948100976A
:101FF00051F0FC0120813181F80134832383B50144
:102000000E94D606F1CF168E1A8309831C821B828A
:102010001E821D821F82D986C8861B861D870C875B
:102020004F2DB801665E7F4FCE0101960E942F0EA4
:102030007C01892B51F48A85882339F0F801868D3B
:1020400083FF03C083E0E82EF12C8B819C810097F5
:1020500031F0E981FA81608171810E94D606C70161
:10206000C35BDF4F0FB6F894DEBF0FBECDBFDF916D
:10207000CF911F910F91FF90EF90DF90CF90BF9085
:10208000AF900895CB01BA010C948B18CB010C943E
:102090000218CB010C9466171F920F920FB60F9285
:1020A00011242F933F938F939F93AF93BF9380916E
:1020B000C6029091C702A091C802B091C9023091A6
:1020C000C50223E0230F2D3758F50196A11DB11D40
:1020D0002093C5028093C6029093C702A093C802C2
:1020E000B093C9028091C1029091C202A091C30233
:1020F000B091C4020196A11DB11D8093C1029093BD
:10210000C202A093C302B093C402BF91AF919F914A
:102110008F913F912F910F900FBE0F901F901895A8
:1021200026E8230F0296A11DB11DD2CF1F920F9258
:102130000FB60F9211240BB60F922F933F934F932C
:102140005F936F937F938F939F93AF93BF93EF931F
:10215000FF93E0910E02F0910F021995FF91EF911C
:10216000BF91AF919F918F917F916F915F914F91AF
:102170003F912F910F900BBE0F900FBE0F901F90AD
:1021800018951F920F920FB60F9211240BB60F9253
:102190002F933F934F935F936F937F938F939F936F
:1021A000AF93BF93EF93FF93E0910C02F0910D0278
:1021B0001995FF91EF91BF91AF919F918F917F9171
:1021C0006F915F914F913F912F910F900BBE0F90A8
:1021D0000FBE0F901F9018951F920F920FB60F927F
:1021E00011240BB60F922F933F934F935F936F93EE
:1021F0007F938F939F93AF93BF93EF93FF93E09160
:102200000202F09103021995FF91EF91BF91AF91F6
:102210009F918F917F916F915F914F913F912F91FE
:102220000F900BBE0F900FBE0F901F9018951F922E
:102230000F920FB60F9211240BB60F922F933F936C
:102240004F935F936F937F938F939F93AF93BF93BE
:10225000EF93FF93E0910002F09101021995FF9135
:10226000EF91BF91AF919F918F917F916F915F910E
:102270004F913F912F910F900BBE0F900FBE0F907B
:102280001F9018951F920F920FB60F9211240BB644
:102290000F922F933F934F935F936F937F938F93FF
:1022A0009F93AF93BF93EF93FF93E0910A02F09156
:1022B0000B021995FF91EF91BF91AF919F918F9173
:1022C0007F916F915F914F913F912F910F900BBE36
:1022D0000F900FBE0F901F9018951F920F920FB680
:1022E0000F9211240BB60F922F933F934F935F934E
:1022F0006F937F938F939F93AF93BF93EF93FF93CE
:10230000E0910802F09109021995FF91EF91BF91B8
:10231000AF919F918F917F916F915F914F913F917D
:102320002F910F900BBE0F900FBE0F901F9018951E
:102330001F920F920FB60F9211240BB60F922F938C
:102340003F934F935F936F937F938F939F93AF933D
:10235000BF93EF93FF93E0910602F0910702199566
:10236000FF91EF91BF91AF919F918F917F916F916D
:102370005F914F913F912F910F900BBE0F900FBE29
:102380000F901F9018951F920F920FB60F92112465
:102390000BB60F922F933F934F935F936F937F935F
:1023A0008F939F93AF93BF93EF93FF93E0910402BA
:1023B000F09105021995FF91EF91BF91AF919F9117
:1023C0008F917F916F915F914F913F912F910F90DE
:1023D0000BBE0F900FBE0F901F9018951F920F927B
:1023E0000FB60F9211240BB60F922F933F934F937A
:1023F0005F936F937F938F939F93AF93BF93EF936D
:10240000FF938AEC92E00E942303FF91EF91BF912A
:10241000AF919F918F917F916F915F914F913F917C
:102420002F910F900BBE0F900FBE0F901F9018951D
:102430001F920F920FB60F9211240BB60F922F938B
:102440003F934F935F936F937F938F939F93AF933C
:10245000BF93EF93FF938AEC92E00E94AF02FF914B
:10246000EF91BF91AF919F918F917F916F915F910C
:102470004F913F912F910F900BBE0F900FBE0F9079
:102480001F9018951F920F920FB60F9211240BB642
:102490000F922F933F934F935F936F937F938F93FD
:1024A0009F93AF93BF93EF93FF9387E693E00E94D0
:1024B0002303FF91EF91BF91AF919F918F917F91F6
:1024C0006F915F914F913F912F910F900BBE0F90A5
:1024D0000FBE0F901F9018951F920F920FB60F927C
:1024E00011240BB60F922F933F934F935F936F93EB
:1024F0007F938F939F93AF93BF93EF93FF9387E661
:1025000093E00E94AF02FF91EF91BF91AF919F9135
:102510008F917F916F915F914F913F912F910F908C
:102520000BBE0F900FBE0F901F9018951F920F9229
:102530000FB60F9211240BB60F922F933F934F9328
:102540005F936F937F938F939F93AF93BF93EF931B
:10255000FF9384E094E00E942303FF91EF91BF91E9
:10256000AF919F918F917F916F915F914F913F912B
:102570002F910F900BBE0F900FBE0F901F901895CC
:102580001F920F920FB60F9211240BB60F922F933A
:102590003F934F935F936F937F938F939F93AF93EB
:1025A000BF93EF93FF9384E094E00E94AF02FF910A
:1025B000EF91BF91AF919F918F917F916F915F91BB
:1025C0004F913F912F910F900BBE0F900FBE0F9028
:1025D0001F901895EAECF2E01382128248EE53E065
:1025E00060E070E0448355836683778386E292E0FF
:1025F0009183808325ED30E03587248724ED30E01A
:102600003787268720ED30E0318B208B21ED30E0BD
:10261000338B228B22ED30E0358B248B26ED30E09E
:10262000378B268B118E128E138E148EE7E6F3E015
:1026300013821282448355836683778391838083D8
:102640002DEC30E0358724872CEC30E03787268767
:1026500028EC30E0318B208B29EC30E0338B228B5F
:102660002AEC30E0358B248B2EEC30E0378B268B38
:10267000118E128E138E148EE4E0F4E01382128217
:1026800044835583668377839183808385EC90E0D0
:102690009587848784EC90E09787868780EC90E02C
:1026A000918B808B81EC90E0938B828B82EC90E01D
:1026B000958B848B86EC90E0978B868B118E128E97
:1026C000138E148EE1EAF4E01382128288E392E022
:1026D0009183808389E084838FEF858388E086837C
:1026E00084E0878385E0808786E0818787E0828732
:1026F0001386148615861686178661E080E10C9491
:10270000D609CF93DF93CDB7DEB7A3970FB6F89472
:10271000DEBF0FBECDBF789484B5826084BD84B522
:10272000816084BD85B5826085BD85B5816085BDCC
:1027300080916E00816080936E0010928100809184
:10274000810082608093810080918100816080930C
:102750008100809180008160809380008091B10031
:1027600084608093B1008091B00081608093B0005C
:1027700080919100826080939100809191008160AE
:10278000809391008091900081608093900080916F
:10279000A10082608093A1008091A100816080935C
:1027A000A1008091A00081608093A0008091210110
:1027B00082608093210180912101816080932101B9
:1027C0008091200181608093200180917A00846053
:1027D00080937A0080917A00826080937A00809161
:1027E0007A00816080937A0080917A00806880937B
:1027F0007A001092C10080E792E0909301028093EA
:10280000000280916A008C7F826080936A00EC9A5B
:1028100084E094E00E94A20187E693E00E94A20176
:102820008AEC92E00E94A20164E084E10E94D60951
:1028300081E090E09093C0028093BF021E0186E089
:10284000280E311C8E010F5F1F4F8BE9E82E82E0AE
:10285000F82E92EAC92E92E0D92E27EAA22E22E083
:10286000B22E3CEA832E32E0932E8091BF029091EB
:10287000C002039734F081E090E09093C00280930F
:10288000BF028091BF029091C0028130910509F092
:1028900081C087E693E00E94F902181619060CF031
:1028A00076C080E192E09A8389831B821D821C821C
:1028B0003F8A2E8A188E94E0998F8FEF8A8F1F8E11
:1028C0004AE067E673E0C8010E94D40F892B09F043
:1028D0005BC019A308A3FBA2EAA2CE0180960E94C6
:1028E0000B0D2B013C014092BB025092BC02609246
:1028F000BD027092BE0219A308A3DBA2CAA2CE0138
:1029000080960E940B0D6093B7027093B80280937B
:10291000B9029093BA0219A308A3BBA2AAA2CE013E
:1029200080960E940B0D6093B3027093B402809363
:10293000B5029093B60219A308A39BA28AA2CE0166
:1029400080960E94230D8093B202C301B2010E94BF
:10295000E90B6091B7027091B8028091B902909131
:10296000BA020E94E90B6091B3027091B4028091A7
:10297000B5029091B6020E94E90B8091B20290E0FC
:102980000E94EC0A0E94FE0BC8010E94E0060E9411
:10299000B2036BCF0297D9F78AEC92E00E94F9025A
:1029A00018161906A4F780E192E09A8389831B82A6
:1029B0001D821C823F8A2E8A188E94E0998F8FEF99
:1029C0008A8F1F8E4AE06AEC72E07DCF0E94281544
:1029D00008F481E00895E89409C097FB3EF49095CF
:1029E0008095709561957F4F8F4F9F4F9923A9F0E8
:1029F000F92F96E9BB279395F69587957795679577
:102A0000B795F111F8CFFAF4BB0F11F460FF1BC0BA
:102A10006F5F7F4F8F4F9F4F16C0882311F096E94D
:102A200011C0772321F09EE8872F762F05C06623FB
:102A300071F096E8862F70E060E02AF09A95660FB4
:102A4000771F881FDAF7880F9695879597F908956D
:102A5000990F0008550FAA0BE0E8FEEF16161706AF
:102A6000E807F907C0F012161306E407F50798F017
:102A7000621B730B840B950B39F40A2661F0232B30
:102A8000242B252B21F408950A2609F4A140A695AC
:102A90008FEF811D811D08950E945F150C94D01544
:102AA0000E94C21538F00E94C91520F0952311F03C
:102AB0000C94B9150C94BF1511240C9404160E94A3
:102AC000E11570F3959FC1F3950F50E0551F629F7C
:102AD000F001729FBB27F00DB11D639FAA27F00D77
:102AE000B11DAA1F649F6627B00DA11D661F829F9E
:102AF0002227B00DA11D621F739FB00DA11D621F83
:102B0000839FA00D611D221F749F3327A00D611D9F
:102B1000231F849F600D211D822F762F6A2F112481
:102B20009F5750409AF0F1F088234AF0EE0FFF1FB4
:102B3000BB1F661F771F881F91505040A9F79E3F0B
:102B4000510580F00C94B9150C9404165F3FE4F322
:102B5000983ED4F3869577956795B795F795E79561
:102B60009F5FC1F7FE2B880F911D9695879597F96A
:102B7000089597F99F6780E870E060E008959FEFFF
:102B800080EC089500240A94161617061806090604
:102B9000089500240A9412161306140605060895D3
:102BA000092E0394000C11F4882352F0BB0F40F45B
:102BB000BF2B11F460FF04C06F5F7F4F8F4F9F4F9B
:102BC000089557FD9058440F551F59F05F3F71F01D
:102BD0004795880F97FB991F61F09F3F79F0879584
:102BE0000895121613061406551FF2CF4695F1DF0D
:102BF00008C0161617061806991FF1CF869571059D
:102C0000610508940895E894BB2766277727CB01D0
:102C100097F908950E941516A59F900DB49F900DE9
:102C2000A49F800D911D11240895A29FB001B39F10
:102C3000C001A39F700D811D1124911DB29F700DC5
:102C4000811D1124911D0895A1E21A2EAA1BBB1B00
:102C5000FD010DC0AA1FBB1FEE1FFF1FA217B30768
:102C6000E407F50720F0A21BB30BE40BF50B661F7E
:102C7000771F881F991F1A9469F760957095809542
:102C800090959B01AC01BD01CF010895EE0FFF1F90
:102C9000881F8BBF0790F691E02D19945058BB27E1
:102CA000AA270E9466160C94D0150E94C21538F00F
:102CB0000E94C91520F039F49F3F19F426F40C94B2
:102CC000BF150EF4E095E7FB0C94B915E92F0E94AF
:102CD000E11558F3BA17620773078407950720F0C8
:102CE00079F4A6F50C9403160EF4E0950B2EBA2F8A
:102CF000A02D0B01B90190010C01CA01A001112402
:102D0000FF27591B99F0593F50F4503E68F11A16AD
:102D1000F040A22F232F342F4427585FF3CF46953E
:102D200037952795A795F0405395C9F77EF41F1660
:102D3000BA0B620B730B840BBAF09150A1F0FF0F2A
:102D4000BB1F661F771F881FC2F70EC0BA0F621F16
:102D5000731F841F48F4879577956795B795F79506
:102D60009E3F08F0B0CF9395880F08F09927EE0F9B
:102D70009795879508950E94CF160C94D0150E94C0
:102D8000C91558F00E94C21540F029F45F3F29F0A0
:102D90000C94B91551110C9404160C94BF150E9493
:102DA000E11568F39923B1F3552391F3951B550B66
:102DB000BB27AA2762177307840738F09F5F5F4F0E
:102DC000220F331F441FAA1FA9F335D00E2E3AF04D
:102DD000E0E832D091505040E695001CCAF72BD065
:102DE000FE2F29D0660F771F881FBB1F26173707B6
:102DF0004807AB07B0E809F0BB0B802DBF01FF27E8
:102E000093585F4F3AF09E3F510578F00C94B915F6
:102E10000C9404165F3FE4F3983ED4F386957795BF
:102E20006795B795F7959F5FC9F7880F911D9695A0
:102E3000879597F90895E1E0660F771F881FBB1FFC
:102E4000621773078407BA0720F0621B730B840BA9
:102E5000BA0BEE1F88F7E09508950E94E91588F0F7
:102E60009F5798F0B92F9927B751B0F0E1F0660F4E
:102E7000771F881F991F1AF0BA95C9F714C0B1308F
:102E800091F00E940316B1E008950C940316672F89
:102E9000782F8827B85F39F0B93FCCF386957795BE
:102EA0006795B395D9F73EF49095809570956195A7
:102EB0007F4F8F4F9F4F08950E94281508F48FEF82
:102EC00008950E942815880B990B08950F931F935E
:102ED000CF93DF938230910510F482E090E0E0918F
:102EE000BB04F091BC0430E020E0B0E0A0E03097FB
:102EF00099F42115310509F44AC0281B390B2430F7
:102F00003105D8F58A819B816115710589F1FB0135
:102F100093838283FE0111C040815181028113811C
:102F200048175907E0F04817590799F4109761F0CE
:102F300012960C93129713961C933296CF01DF9141
:102F4000CF911F910F9108950093BB041093BC047F
:102F5000F4CF2115310551F04217530738F0A9017C
:102F6000DB019A01BD01DF01F801C1CFEF01F9CF0B
:102F70009093BC048093BB04CDCFFE01E20FF31FFE
:102F8000819391932250310939832883D7CF20919F
:102F9000B9043091BA04232B41F4209114023091EA
:102FA00015023093BA042093B90420911202309193
:102FB00013022115310541F42DB73EB74091160299
:102FC00050911702241B350BE091B904F091BA041B
:102FD000E217F307A0F42E1B3F0B2817390778F0F0
:102FE000AC014E5F5F4F2417350748F04E0F5F1F4F
:102FF0005093BA044093B904819391939FCFF0E02A
:10300000E0E09CCFCF93DF930097E9F0FC0132978B
:1030100013821282A091BB04B091BC04ED0130E098
:1030200020E01097A1F420813181820F931F20911D
:10303000B9043091BA042817390709F061C0F09338
:10304000BA04E093B904DF91CF910895EA01CE1755
:10305000DF07E8F54A815B819E0141155105B1F713
:10306000E901FB83EA8349915991C40FD51FEC17FD
:10307000FD0761F4808191810296840F951FE9011B
:1030800099838883828193819B838A83F0E0E0E047
:1030900012968D919C9113970097B9F52D913C91C3
:1030A0001197CD010296820F931F2091B9043091A0
:1030B000BA042817390739F6309751F51092BC0435
:1030C0001092BB04B093BA04A093B904BCCFD383CD
:1030D000C28340815181840F951FC817D90761F4BD
:1030E0004E5F5F4F88819981480F591F51834083FC
:1030F0008A819B81938382832115310509F0B0CFAA
:10310000F093BC04E093BB049ECFFD01DC01C0CF73
:1031100013821282D7CF4F925F926F927F928F92DB
:103120009F92AF92BF92CF92DF92EF92FF920F9356
:103130001F93CF93DF938C01009799F4CB01DF911C
:10314000CF911F910F91FF90EF90DF90CF90BF90A4
:10315000AF909F908F907F906F905F904F900C9466
:103160006617FC01E60FF71F9C0122503109E21798
:10317000F30708F4AEC0D901CD91DC911197C617C1
:10318000D70720F1C530D10578F0CE010497861716
:10319000970750F0C61BD70B2297C193D1936D931D
:1031A0007C93CF010E940218C801DF91CF911F913B
:1031B0000F91FF90EF90DF90CF90BF90AF909F90D6
:1031C0008F907F906F905F904F9008955B01AC1A45
:1031D000BD0A4C018C0E9D1EA091BB04B091BC0495
:1031E000512C412CF12CE12C109731F58091B90430
:1031F0009091BA048815990509F05CC046165706E7
:1032000008F058C08091120290911302009741F487
:103210008DB79EB74091160250911702841B950BF3
:10322000E817F90708F055C0F093BA04E093B90421
:10323000F90171836083B8CF8D919C91119712969B
:103240006C90129713967C901397A815B90559F5B1
:103250006C0142E0C40ED11CCA14DB0420F1AC01A5
:103260004A195B09DA011296159780F0628273821F
:1032700051834083D9016D937C93E114F10471F083
:10328000D7011396FC93EE9312978ECF22968C0F54
:103290009D1FF90191838083F301EFCFF093BC046C
:1032A000E093BB0481CF4816590608F42C017D0138
:1032B000D3019ACFCB010E9466177C01009749F099
:1032C000AE01B8010E946C19C8010E940218870162
:1032D0006BCF10E000E068CFFB01DC0102C0019081
:0E32E0000D9241505040D8F70895F894FFCF5A
:1032EE007A027A027A027A027A027A027A027A02F0
:1032FE001C020000BD0480000000000049104610B2
:10330E0042100000000045038202C8029203F90237
:10331E00D702EB0200000000860A8202DC03DB0308
:10332E002F2F22225C5C6208660C6E0A720D7409E5
:10333E00000D0A006E616E00696E66006F766600A3
:10334E0054656E73616F3A005600436F72722E3A77
:10335E0000410054656D702E3A004300466F746F45
:10336E003A004F4E004F464600500074727565008D
:10337E0066616C7365006E756C6C0074656E73615E
:10338E006F00636F72720074656D7000666F746F9C
:02339E0000002D
:00000001FF
